{
  "_format": "hh3-artifact-1",
  "contractName": "OnchainSettle",
  "sourceName": "contracts/OnchainSettle.sol",
  "abi": [
    {
      "inputs": [],
      "stateMutability": "nonpayable",
      "type": "constructor"
    },
    {
      "inputs": [
        {
          "internalType": "address",
          "name": "owner",
          "type": "address"
        }
      ],
      "name": "OwnableInvalidOwner",
      "type": "error"
    },
    {
      "inputs": [
        {
          "internalType": "address",
          "name": "account",
          "type": "address"
        }
      ],
      "name": "OwnableUnauthorizedAccount",
      "type": "error"
    },
    {
      "anonymous": false,
      "inputs": [
        {
          "indexed": true,
          "internalType": "address",
          "name": "operator",
          "type": "address"
        },
        {
          "indexed": false,
          "internalType": "uint256",
          "name": "numTransfers",
          "type": "uint256"
        }
      ],
      "name": "BatchSettled",
      "type": "event"
    },
    {
      "anonymous": false,
      "inputs": [
        {
          "indexed": true,
          "internalType": "address",
          "name": "token",
          "type": "address"
        },
        {
          "indexed": true,
          "internalType": "address",
          "name": "user",
          "type": "address"
        },
        {
          "indexed": false,
          "internalType": "uint256",
          "name": "amount",
          "type": "uint256"
        }
      ],
      "name": "Deposited",
      "type": "event"
    },
    {
      "anonymous": false,
      "inputs": [
        {
          "indexed": true,
          "internalType": "address",
          "name": "previousOwner",
          "type": "address"
        },
        {
          "indexed": true,
          "internalType": "address",
          "name": "newOwner",
          "type": "address"
        }
      ],
      "name": "OwnershipTransferred",
      "type": "event"
    },
    {
      "anonymous": false,
      "inputs": [
        {
          "indexed": true,
          "internalType": "address",
          "name": "token",
          "type": "address"
        },
        {
          "indexed": true,
          "internalType": "address",
          "name": "user",
          "type": "address"
        },
        {
          "indexed": false,
          "internalType": "uint256",
          "name": "amount",
          "type": "uint256"
        }
      ],
      "name": "Withdrawn",
      "type": "event"
    },
    {
      "inputs": [
        {
          "internalType": "address",
          "name": "token",
          "type": "address"
        },
        {
          "internalType": "uint256",
          "name": "amount",
          "type": "uint256"
        }
      ],
      "name": "deposit",
      "outputs": [],
      "stateMutability": "nonpayable",
      "type": "function"
    },
    {
      "inputs": [
        {
          "internalType": "address",
          "name": "token",
          "type": "address"
        },
        {
          "internalType": "address",
          "name": "user",
          "type": "address"
        }
      ],
      "name": "depositedBalance",
      "outputs": [
        {
          "internalType": "uint256",
          "name": "",
          "type": "uint256"
        }
      ],
      "stateMutability": "view",
      "type": "function"
    },
    {
      "inputs": [
        {
          "internalType": "address",
          "name": "",
          "type": "address"
        },
        {
          "internalType": "address",
          "name": "",
          "type": "address"
        }
      ],
      "name": "deposits",
      "outputs": [
        {
          "internalType": "uint256",
          "name": "",
          "type": "uint256"
        }
      ],
      "stateMutability": "view",
      "type": "function"
    },
    {
      "inputs": [],
      "name": "owner",
      "outputs": [
        {
          "internalType": "address",
          "name": "",
          "type": "address"
        }
      ],
      "stateMutability": "view",
      "type": "function"
    },
    {
      "inputs": [],
      "name": "renounceOwnership",
      "outputs": [],
      "stateMutability": "nonpayable",
      "type": "function"
    },
    {
      "inputs": [
        {
          "internalType": "address[]",
          "name": "tokens",
          "type": "address[]"
        },
        {
          "internalType": "address[]",
          "name": "froms",
          "type": "address[]"
        },
        {
          "internalType": "address[]",
          "name": "tos",
          "type": "address[]"
        },
        {
          "internalType": "uint256[]",
          "name": "amounts",
          "type": "uint256[]"
        }
      ],
      "name": "settleBatch",
      "outputs": [],
      "stateMutability": "nonpayable",
      "type": "function"
    },
    {
      "inputs": [
        {
          "internalType": "address",
          "name": "newOwner",
          "type": "address"
        }
      ],
      "name": "transferOwnership",
      "outputs": [],
      "stateMutability": "nonpayable",
      "type": "function"
    },
    {
      "inputs": [
        {
          "internalType": "address",
          "name": "token",
          "type": "address"
        },
        {
          "internalType": "uint256",
          "name": "amount",
          "type": "uint256"
        }
      ],
      "name": "withdraw",
      "outputs": [],
      "stateMutability": "nonpayable",
      "type": "function"
    }
  ],
  "bytecode": "0x608060405234801561000f575f5ffd5b50335f73ffffffffffffffffffffffffffffffffffffffff168173ffffffffffffffffffffffffffffffffffffffff1603610081575f6040517f1e4fbdf70000000000000000000000000000000000000000000000000000000081526004016100789190610196565b60405180910390fd5b6100908161009660201b60201c565b506101af565b5f5f5f9054906101000a900473ffffffffffffffffffffffffffffffffffffffff169050815f5f6101000a81548173ffffffffffffffffffffffffffffffffffffffff021916908373ffffffffffffffffffffffffffffffffffffffff1602179055508173ffffffffffffffffffffffffffffffffffffffff168173ffffffffffffffffffffffffffffffffffffffff167f8be0079c531659141344cd1fd0a4f28419497f9722a3daafe3b4186f6b6457e060405160405180910390a35050565b5f73ffffffffffffffffffffffffffffffffffffffff82169050919050565b5f61018082610157565b9050919050565b61019081610176565b82525050565b5f6020820190506101a95f830184610187565b92915050565b611579806101bc5f395ff3fe608060405234801561000f575f5ffd5b5060043610610086575f3560e01c80638da5cb5b116100595780638da5cb5b146100fc5780638f601f661461011a578063f2fde38b1461014a578063f3fef3a31461016657610086565b8063059475f71461008a57806332adcbba146100ba57806347e7ef24146100d6578063715018a6146100f2575b5f5ffd5b6100a4600480360381019061009f9190610d8d565b610182565b6040516100b19190610de3565b60405180910390f35b6100d460048036038101906100cf9190610eb2565b610204565b005b6100f060048036038101906100eb9190610fc0565b610652565b005b6100fa61084c565b005b61010461085f565b604051610111919061100d565b60405180910390f35b610134600480360381019061012f9190610d8d565b610886565b6040516101419190610de3565b60405180910390f35b610164600480360381019061015f9190611026565b6108a6565b005b610180600480360381019061017b9190610fc0565b61092a565b005b5f60015f8473ffffffffffffffffffffffffffffffffffffffff1673ffffffffffffffffffffffffffffffffffffffff1681526020019081526020015f205f8373ffffffffffffffffffffffffffffffffffffffff1673ffffffffffffffffffffffffffffffffffffffff1681526020019081526020015f2054905092915050565b61020c610bdc565b5f8888905090505f8111610255576040517f08c379a000000000000000000000000000000000000000000000000000000000815260040161024c906110ab565b60405180910390fd5b808787905014801561026957508085859050145b801561027757508083839050145b6102b6576040517f08c379a00000000000000000000000000000000000000000000000000000000081526004016102ad90611113565b60405180910390fd5b5f5f90505b818110156103f0578383828181106102d6576102d5611131565b5b9050602002013560015f8c8c858181106102f3576102f2611131565b5b90506020020160208101906103089190611026565b73ffffffffffffffffffffffffffffffffffffffff1673ffffffffffffffffffffffffffffffffffffffff1681526020019081526020015f205f8a8a8581811061035557610354611131565b5b905060200201602081019061036a9190611026565b73ffffffffffffffffffffffffffffffffffffffff1673ffffffffffffffffffffffffffffffffffffffff1681526020019081526020015f205410156103e5576040517f08c379a00000000000000000000000000000000000000000000000000000000081526004016103dc906111ce565b60405180910390fd5b8060010190506102bb565b505f5f90505b818110156105f8575f8a8a8381811061041257610411611131565b5b90506020020160208101906104279190611026565b90505f89898481811061043d5761043c611131565b5b90506020020160208101906104529190611026565b90505f88888581811061046857610467611131565b5b905060200201602081019061047d9190611026565b90505f87878681811061049357610492611131565b5b9050602002013590508060015f8673ffffffffffffffffffffffffffffffffffffffff1673ffffffffffffffffffffffffffffffffffffffff1681526020019081526020015f205f8573ffffffffffffffffffffffffffffffffffffffff1673ffffffffffffffffffffffffffffffffffffffff1681526020019081526020015f205f8282546105239190611219565b925050819055505f8473ffffffffffffffffffffffffffffffffffffffff1663a9059cbb84846040518363ffffffff1660e01b815260040161056692919061124c565b6020604051808303815f875af1158015610582573d5f5f3e3d5ffd5b505050506040513d601f19601f820116820180604052508101906105a691906112a8565b9050806105e8576040517f08c379a00000000000000000000000000000000000000000000000000000000081526004016105df9061131d565b60405180910390fd5b50505050508060010190506103f6565b503373ffffffffffffffffffffffffffffffffffffffff167f90be00fc06c21821240707b1914a5b014665cf4945143268ae1184b380f24d0f8260405161063f9190610de3565b60405180910390a2505050505050505050565b5f8111610694576040517f08c379a000000000000000000000000000000000000000000000000000000000815260040161068b90611385565b60405180910390fd5b5f8273ffffffffffffffffffffffffffffffffffffffff166323b872dd3330856040518463ffffffff1660e01b81526004016106d2939291906113a3565b6020604051808303815f875af11580156106ee573d5f5f3e3d5ffd5b505050506040513d601f19601f8201168201806040525081019061071291906112a8565b905080610754576040517f08c379a000000000000000000000000000000000000000000000000000000000815260040161074b90611422565b60405180910390fd5b8160015f8573ffffffffffffffffffffffffffffffffffffffff1673ffffffffffffffffffffffffffffffffffffffff1681526020019081526020015f205f3373ffffffffffffffffffffffffffffffffffffffff1673ffffffffffffffffffffffffffffffffffffffff1681526020019081526020015f205f8282546107db9190611440565b925050819055503373ffffffffffffffffffffffffffffffffffffffff168373ffffffffffffffffffffffffffffffffffffffff167f8752a472e571a816aea92eec8dae9baf628e840f4929fbcc2d155e6233ff68a78460405161083f9190610de3565b60405180910390a3505050565b610854610bdc565b61085d5f610c63565b565b5f5f5f9054906101000a900473ffffffffffffffffffffffffffffffffffffffff16905090565b6001602052815f5260405f20602052805f5260405f205f91509150505481565b6108ae610bdc565b5f73ffffffffffffffffffffffffffffffffffffffff168173ffffffffffffffffffffffffffffffffffffffff160361091e575f6040517f1e4fbdf7000000000000000000000000000000000000000000000000000000008152600401610915919061100d565b60405180910390fd5b61092781610c63565b50565b5f811161096c576040517f08c379a000000000000000000000000000000000000000000000000000000000815260040161096390611385565b60405180910390fd5b5f60015f8473ffffffffffffffffffffffffffffffffffffffff1673ffffffffffffffffffffffffffffffffffffffff1681526020019081526020015f205f3373ffffffffffffffffffffffffffffffffffffffff1673ffffffffffffffffffffffffffffffffffffffff1681526020019081526020015f2054905081811015610a2b576040517f08c379a0000000000000000000000000000000000000000000000000000000008152600401610a22906114bd565b60405180910390fd5b8181610a379190611219565b60015f8573ffffffffffffffffffffffffffffffffffffffff1673ffffffffffffffffffffffffffffffffffffffff1681526020019081526020015f205f3373ffffffffffffffffffffffffffffffffffffffff1673ffffffffffffffffffffffffffffffffffffffff1681526020019081526020015f20819055505f8373ffffffffffffffffffffffffffffffffffffffff1663a9059cbb33856040518363ffffffff1660e01b8152600401610aef92919061124c565b6020604051808303815f875af1158015610b0b573d5f5f3e3d5ffd5b505050506040513d601f19601f82011682018060405250810190610b2f91906112a8565b905080610b71576040517f08c379a0000000000000000000000000000000000000000000000000000000008152600401610b6890611525565b60405180910390fd5b3373ffffffffffffffffffffffffffffffffffffffff168473ffffffffffffffffffffffffffffffffffffffff167fd1c19fbcd4551a5edfb66d43d2e337c04837afda3482b42bdf569a8fccdae5fb85604051610bce9190610de3565b60405180910390a350505050565b610be4610d24565b73ffffffffffffffffffffffffffffffffffffffff16610c0261085f565b73ffffffffffffffffffffffffffffffffffffffff1614610c6157610c25610d24565b6040517f118cdaa7000000000000000000000000000000000000000000000000000000008152600401610c58919061100d565b60405180910390fd5b565b5f5f5f9054906101000a900473ffffffffffffffffffffffffffffffffffffffff169050815f5f6101000a81548173ffffffffffffffffffffffffffffffffffffffff021916908373ffffffffffffffffffffffffffffffffffffffff1602179055508173ffffffffffffffffffffffffffffffffffffffff168173ffffffffffffffffffffffffffffffffffffffff167f8be0079c531659141344cd1fd0a4f28419497f9722a3daafe3b4186f6b6457e060405160405180910390a35050565b5f33905090565b5f5ffd5b5f5ffd5b5f73ffffffffffffffffffffffffffffffffffffffff82169050919050565b5f610d5c82610d33565b9050919050565b610d6c81610d52565b8114610d76575f5ffd5b50565b5f81359050610d8781610d63565b92915050565b5f5f60408385031215610da357610da2610d2b565b5b5f610db085828601610d79565b9250506020610dc185828601610d79565b9150509250929050565b5f819050919050565b610ddd81610dcb565b82525050565b5f602082019050610df65f830184610dd4565b92915050565b5f5ffd5b5f5ffd5b5f5ffd5b5f5f83601f840112610e1d57610e1c610dfc565b5b8235905067ffffffffffffffff811115610e3a57610e39610e00565b5b602083019150836020820283011115610e5657610e55610e04565b5b9250929050565b5f5f83601f840112610e7257610e71610dfc565b5b8235905067ffffffffffffffff811115610e8f57610e8e610e00565b5b602083019150836020820283011115610eab57610eaa610e04565b5b9250929050565b5f5f5f5f5f5f5f5f6080898b031215610ece57610ecd610d2b565b5b5f89013567ffffffffffffffff811115610eeb57610eea610d2f565b5b610ef78b828c01610e08565b9850985050602089013567ffffffffffffffff811115610f1a57610f19610d2f565b5b610f268b828c01610e08565b9650965050604089013567ffffffffffffffff811115610f4957610f48610d2f565b5b610f558b828c01610e08565b9450945050606089013567ffffffffffffffff811115610f7857610f77610d2f565b5b610f848b828c01610e5d565b92509250509295985092959890939650565b610f9f81610dcb565b8114610fa9575f5ffd5b50565b5f81359050610fba81610f96565b92915050565b5f5f60408385031215610fd657610fd5610d2b565b5b5f610fe385828601610d79565b9250506020610ff485828601610fac565b9150509250929050565b61100781610d52565b82525050565b5f6020820190506110205f830184610ffe565b92915050565b5f6020828403121561103b5761103a610d2b565b5b5f61104884828501610d79565b91505092915050565b5f82825260208201905092915050565b7f656d7074792062617463680000000000000000000000000000000000000000005f82015250565b5f611095600b83611051565b91506110a082611061565b602082019050919050565b5f6020820190508181035f8301526110c281611089565b9050919050565b7f6c656e677468206d69736d6174636800000000000000000000000000000000005f82015250565b5f6110fd600f83611051565b9150611108826110c9565b602082019050919050565b5f6020820190508181035f83015261112a816110f1565b9050919050565b7f4e487b71000000000000000000000000000000000000000000000000000000005f52603260045260245ffd5b7f696e73756666696369656e74206465706f73697465642062616c616e636520665f8201527f6f722061207472616e7366657200000000000000000000000000000000000000602082015250565b5f6111b8602d83611051565b91506111c38261115e565b604082019050919050565b5f6020820190508181035f8301526111e5816111ac565b9050919050565b7f4e487b71000000000000000000000000000000000000000000000000000000005f52601160045260245ffd5b5f61122382610dcb565b915061122e83610dcb565b9250828203905081811115611246576112456111ec565b5b92915050565b5f60408201905061125f5f830185610ffe565b61126c6020830184610dd4565b9392505050565b5f8115159050919050565b61128781611273565b8114611291575f5ffd5b50565b5f815190506112a28161127e565b92915050565b5f602082840312156112bd576112bc610d2b565b5b5f6112ca84828501611294565b91505092915050565b7f6572633230207472616e73666572206661696c656420696e20626174636800005f82015250565b5f611307601e83611051565b9150611312826112d3565b602082019050919050565b5f6020820190508181035f830152611334816112fb565b9050919050565b7f616d6f756e743d300000000000000000000000000000000000000000000000005f82015250565b5f61136f600883611051565b915061137a8261133b565b602082019050919050565b5f6020820190508181035f83015261139c81611363565b9050919050565b5f6060820190506113b65f830186610ffe565b6113c36020830185610ffe565b6113d06040830184610dd4565b949350505050565b7f7472616e7366657246726f6d206661696c6564000000000000000000000000005f82015250565b5f61140c601383611051565b9150611417826113d8565b602082019050919050565b5f6020820190508181035f83015261143981611400565b9050919050565b5f61144a82610dcb565b915061145583610dcb565b925082820190508082111561146d5761146c6111ec565b5b92915050565b7f696e73756666696369656e74206465706f73697465642062616c616e636500005f82015250565b5f6114a7601e83611051565b91506114b282611473565b602082019050919050565b5f6020820190508181035f8301526114d48161149b565b9050919050565b7f7472616e73666572206661696c656400000000000000000000000000000000005f82015250565b5f61150f600f83611051565b915061151a826114db565b602082019050919050565b5f6020820190508181035f83015261153c81611503565b905091905056fea26469706673582212205dcbd33871f6b5c1623083ca037537e0b398669c2a106d121cc45ca47323092664736f6c634300081c0033",
  "linkReferences": {},
  "deployedLinkReferences": {},
  "immutableReferences": {},
  "inputSourceName": "project/contracts/OnchainSettle.sol",
  "buildInfoId": "solc-0_8_28-0497320d75ac9c75f1c7ff26a51620a4c1683b68"
}